{
  "contractName": "CommunityPolls",
  "abi": [
    {
      "anonymous": false,
      "inputs": [
        {
          "indexed": false,
          "internalType": "uint256",
          "name": "id",
          "type": "uint256"
        },
        {
          "indexed": false,
          "internalType": "address",
          "name": "creator",
          "type": "address"
        },
        {
          "indexed": false,
          "internalType": "string",
          "name": "question",
          "type": "string"
        },
        {
          "components": [
            {
              "internalType": "string",
              "name": "option",
              "type": "string"
            },
            {
              "internalType": "uint256",
              "name": "votes",
              "type": "uint256"
            }
          ],
          "indexed": false,
          "internalType": "struct CommunityPolls.Option[]",
          "name": "options",
          "type": "tuple[]"
        }
      ],
      "name": "PollCreated",
      "type": "event"
    },
    {
      "anonymous": false,
      "inputs": [
        {
          "indexed": false,
          "internalType": "uint256",
          "name": "id",
          "type": "uint256"
        },
        {
          "indexed": false,
          "internalType": "address",
          "name": "voter",
          "type": "address"
        },
        {
          "indexed": false,
          "internalType": "uint256",
          "name": "optionIndex",
          "type": "uint256"
        }
      ],
      "name": "PollVoted",
      "type": "event"
    },
    {
      "inputs": [
        {
          "internalType": "address",
          "name": "",
          "type": "address"
        },
        {
          "internalType": "uint256",
          "name": "",
          "type": "uint256"
        }
      ],
      "name": "addressToVotedPolls",
      "outputs": [
        {
          "internalType": "uint256",
          "name": "",
          "type": "uint256"
        }
      ],
      "stateMutability": "view",
      "type": "function",
      "constant": true
    },
    {
      "inputs": [
        {
          "internalType": "uint256",
          "name": "",
          "type": "uint256"
        },
        {
          "internalType": "uint256",
          "name": "",
          "type": "uint256"
        }
      ],
      "name": "pollIdToOptions",
      "outputs": [
        {
          "internalType": "string",
          "name": "option",
          "type": "string"
        },
        {
          "internalType": "uint256",
          "name": "votes",
          "type": "uint256"
        }
      ],
      "stateMutability": "view",
      "type": "function",
      "constant": true
    },
    {
      "inputs": [
        {
          "internalType": "uint256",
          "name": "",
          "type": "uint256"
        }
      ],
      "name": "pollIdToPoll",
      "outputs": [
        {
          "internalType": "uint256",
          "name": "id",
          "type": "uint256"
        },
        {
          "internalType": "address",
          "name": "creator",
          "type": "address"
        },
        {
          "internalType": "string",
          "name": "question",
          "type": "string"
        }
      ],
      "stateMutability": "view",
      "type": "function",
      "constant": true
    },
    {
      "inputs": [],
      "name": "pollsCount",
      "outputs": [
        {
          "internalType": "uint256",
          "name": "",
          "type": "uint256"
        }
      ],
      "stateMutability": "view",
      "type": "function",
      "constant": true
    },
    {
      "inputs": [
        {
          "internalType": "string",
          "name": "_question",
          "type": "string"
        },
        {
          "components": [
            {
              "internalType": "string",
              "name": "option",
              "type": "string"
            },
            {
              "internalType": "uint256",
              "name": "votes",
              "type": "uint256"
            }
          ],
          "internalType": "struct CommunityPolls.Option[]",
          "name": "_options",
          "type": "tuple[]"
        }
      ],
      "name": "createPoll",
      "outputs": [],
      "stateMutability": "nonpayable",
      "type": "function"
    },
    {
      "inputs": [
        {
          "internalType": "uint256",
          "name": "_pollId",
          "type": "uint256"
        },
        {
          "internalType": "uint256",
          "name": "_optionIndex",
          "type": "uint256"
        }
      ],
      "name": "vote",
      "outputs": [],
      "stateMutability": "nonpayable",
      "type": "function"
    }
  ],
  "bytecode": "0x60806040526000805534801561001457600080fd5b506110b9806100246000396000f3fe608060405234801561001057600080fd5b50600436106100625760003560e01c80630f52e91214610067578063179d760d146100835780632425795a146100a15780639c4ebd82146100d3578063b384abef14610104578063f19ec2ba14610120575b600080fd5b610081600480360381019061007c9190610ae9565b610150565b005b61008b610309565b6040516100989190610b70565b60405180910390f35b6100bb60048036038101906100b69190610b8b565b61030f565b6040516100ca93929190610c81565b60405180910390f35b6100ed60048036038101906100e89190610cbf565b6103e1565b6040516100fb929190610cff565b60405180910390f35b61011e60048036038101906101199190610cbf565b6104aa565b005b61013a60048036038101906101359190610d5b565b61064d565b6040516101479190610b70565b60405180910390f35b60008081548092919061016290610dca565b91905055506000604051806060016040528060005481526020013373ffffffffffffffffffffffffffffffffffffffff1681526020018481525090508060016000805481526020019081526020016000206000820151816000015560208201518160010160006101000a81548173ffffffffffffffffffffffffffffffffffffffff021916908373ffffffffffffffffffffffffffffffffffffffff160217905550604082015181600201908051906020019061022092919061075a565b5090505060005b82518110156102c457600260008054815260200190815260200160002083828151811061025757610256610e12565b5b6020026020010151908060018154018082558091505060019003906000526020600020906002020160009091909190915060008201518160000190805190602001906102a492919061075a565b5060208201518160010155505080806102bc90610dca565b915050610227565b507ff872528f485af3ae72d235de5679ef742b20283f8167e84806995e7e963c360d6000543385856040516102fc9493929190610f99565b60405180910390a1505050565b60005481565b60016020528060005260406000206000915090508060000154908060010160009054906101000a900473ffffffffffffffffffffffffffffffffffffffff169080600201805461035e9061101b565b80601f016020809104026020016040519081016040528092919081815260200182805461038a9061101b565b80156103d75780601f106103ac576101008083540402835291602001916103d7565b820191906000526020600020905b8154815290600101906020018083116103ba57829003601f168201915b5050505050905083565b600260205281600052604060002081815481106103fd57600080fd5b9060005260206000209060020201600091509150508060000180546104219061101b565b80601f016020809104026020016040519081016040528092919081815260200182805461044d9061101b565b801561049a5780601f1061046f5761010080835404028352916020019161049a565b820191906000526020600020905b81548152906001019060200180831161047d57829003601f168201915b5050505050908060010154905082565b6001600083815260200190815260200160002060010160009054906101000a900473ffffffffffffffffffffffffffffffffffffffff1673ffffffffffffffffffffffffffffffffffffffff163373ffffffffffffffffffffffffffffffffffffffff160361051857600080fd5b60005482111561052757600080fd5b6002600083815260200190815260200160002080549050811061054957600080fd5b6105528261067e565b1561055c57600080fd5b60026000838152602001908152602001600020818154811061058157610580610e12565b5b906000526020600020906002020160010160008154809291906105a390610dca565b9190505550600360003373ffffffffffffffffffffffffffffffffffffffff1673ffffffffffffffffffffffffffffffffffffffff1681526020019081526020016000208290806001815401808255809150506001900390600052602060002001600090919091909150557f41b9ea38e0dca627a5a8588a7edd2198d6d8e43ec5a6161fa126559a0eb570148233836040516106419392919061104c565b60405180910390a15050565b6003602052816000526040600020818154811061066957600080fd5b90600052602060002001600091509150505481565b600080600090505b600360003373ffffffffffffffffffffffffffffffffffffffff1673ffffffffffffffffffffffffffffffffffffffff1681526020019081526020016000208054905081101561074f5782600360003373ffffffffffffffffffffffffffffffffffffffff1673ffffffffffffffffffffffffffffffffffffffff168152602001908152602001600020828154811061072257610721610e12565b5b90600052602060002001540361073c576001915050610755565b808061074790610dca565b915050610686565b50600090505b919050565b8280546107669061101b565b90600052602060002090601f01602090048101928261078857600085556107cf565b82601f106107a157805160ff19168380011785556107cf565b828001600101855582156107cf579182015b828111156107ce5782518255916020019190600101906107b3565b5b5090506107dc91906107e0565b5090565b5b808211156107f95760008160009055506001016107e1565b5090565b6000604051905090565b600080fd5b600080fd5b600080fd5b600080fd5b6000601f19601f8301169050919050565b7f4e487b7100000000000000000000000000000000000000000000000000000000600052604160045260246000fd5b6108648261081b565b810181811067ffffffffffffffff821117156108835761088261082c565b5b80604052505050565b60006108966107fd565b90506108a2828261085b565b919050565b600067ffffffffffffffff8211156108c2576108c161082c565b5b6108cb8261081b565b9050602081019050919050565b82818337600083830152505050565b60006108fa6108f5846108a7565b61088c565b90508281526020810184848401111561091657610915610816565b5b6109218482856108d8565b509392505050565b600082601f83011261093e5761093d610811565b5b813561094e8482602086016108e7565b91505092915050565b600067ffffffffffffffff8211156109725761097161082c565b5b602082029050602081019050919050565b600080fd5b600080fd5b600080fd5b6000819050919050565b6109a581610992565b81146109b057600080fd5b50565b6000813590506109c28161099c565b92915050565b6000604082840312156109de576109dd610988565b5b6109e8604061088c565b9050600082013567ffffffffffffffff811115610a0857610a0761098d565b5b610a1484828501610929565b6000830152506020610a28848285016109b3565b60208301525092915050565b6000610a47610a4284610957565b61088c565b90508083825260208201905060208402830185811115610a6a57610a69610983565b5b835b81811015610ab157803567ffffffffffffffff811115610a8f57610a8e610811565b5b808601610a9c89826109c8565b85526020850194505050602081019050610a6c565b5050509392505050565b600082601f830112610ad057610acf610811565b5b8135610ae0848260208601610a34565b91505092915050565b60008060408385031215610b0057610aff610807565b5b600083013567ffffffffffffffff811115610b1e57610b1d61080c565b5b610b2a85828601610929565b925050602083013567ffffffffffffffff811115610b4b57610b4a61080c565b5b610b5785828601610abb565b9150509250929050565b610b6a81610992565b82525050565b6000602082019050610b856000830184610b61565b92915050565b600060208284031215610ba157610ba0610807565b5b6000610baf848285016109b3565b91505092915050565b600073ffffffffffffffffffffffffffffffffffffffff82169050919050565b6000610be382610bb8565b9050919050565b610bf381610bd8565b82525050565b600081519050919050565b600082825260208201905092915050565b60005b83811015610c33578082015181840152602081019050610c18565b83811115610c42576000848401525b50505050565b6000610c5382610bf9565b610c5d8185610c04565b9350610c6d818560208601610c15565b610c768161081b565b840191505092915050565b6000606082019050610c966000830186610b61565b610ca36020830185610bea565b8181036040830152610cb58184610c48565b9050949350505050565b60008060408385031215610cd657610cd5610807565b5b6000610ce4858286016109b3565b9250506020610cf5858286016109b3565b9150509250929050565b60006040820190508181036000830152610d198185610c48565b9050610d286020830184610b61565b9392505050565b610d3881610bd8565b8114610d4357600080fd5b50565b600081359050610d5581610d2f565b92915050565b60008060408385031215610d7257610d71610807565b5b6000610d8085828601610d46565b9250506020610d91858286016109b3565b9150509250929050565b7f4e487b7100000000000000000000000000000000000000000000000000000000600052601160045260246000fd5b6000610dd582610992565b91507fffffffffffffffffffffffffffffffffffffffffffffffffffffffffffffffff8203610e0757610e06610d9b565b5b600182019050919050565b7f4e487b7100000000000000000000000000000000000000000000000000000000600052603260045260246000fd5b600081519050919050565b600082825260208201905092915050565b6000819050602082019050919050565b600082825260208201905092915050565b6000610e8982610bf9565b610e938185610e6d565b9350610ea3818560208601610c15565b610eac8161081b565b840191505092915050565b610ec081610992565b82525050565b60006040830160008301518482036000860152610ee38282610e7e565b9150506020830151610ef86020860182610eb7565b508091505092915050565b6000610f0f8383610ec6565b905092915050565b6000602082019050919050565b6000610f2f82610e41565b610f398185610e4c565b935083602082028501610f4b85610e5d565b8060005b85811015610f875784840389528151610f688582610f03565b9450610f7383610f17565b925060208a01995050600181019050610f4f565b50829750879550505050505092915050565b6000608082019050610fae6000830187610b61565b610fbb6020830186610bea565b8181036040830152610fcd8185610c48565b90508181036060830152610fe18184610f24565b905095945050505050565b7f4e487b7100000000000000000000000000000000000000000000000000000000600052602260045260246000fd5b6000600282049050600182168061103357607f821691505b60208210810361104657611045610fec565b5b50919050565b60006060820190506110616000830186610b61565b61106e6020830185610bea565b61107b6040830184610b61565b94935050505056fea2646970667358221220ad725eda2f8604e469dceb7ccef1ebfcfaf4eedcd97c8df73bf762851dfa047064736f6c634300080d0033",
  "immutableReferences": {},
  "source": "// SPDX-License-Identifier: MIT\npragma solidity ^0.8.13;\n\ncontract CommunityPolls {\n  uint public pollsCount = 0;\n  struct Option {\n    string option;\n    uint votes;\n  }\n  struct Poll {\n    uint id;\n    address creator;\n    string question;\n  }\n\n  mapping(uint => Poll) public pollIdToPoll;\n  mapping(uint => Option[]) public pollIdToOptions;\n  mapping(address => uint[]) public addressToVotedPolls;\n\n  event PollCreated(uint id, address creator, string question, Option[] options);\n  event PollVoted(uint id, address voter, uint optionIndex);\n\n  function createPoll(string memory _question, Option[] memory _options) public {\n    pollsCount++;\n    Poll memory _poll = Poll({\n      id: pollsCount,\n      creator: msg.sender,\n      question: _question\n    });\n    pollIdToPoll[pollsCount] = _poll;\n    for(uint i = 0;i < _options.length;i++) {\n      pollIdToOptions[pollsCount].push(_options[i]);\n    }\n\n    emit PollCreated(pollsCount, msg.sender, _question, _options);\n  }\n\n  function hasVoted(uint _pollId) private view returns (bool) {\n    for (uint i = 0; i < addressToVotedPolls[msg.sender].length; i++) {\n      if(addressToVotedPolls[msg.sender][i] == _pollId) {\n        return true;\n      }\n    }\n    return false;\n  }\n\n  function vote(uint _pollId, uint _optionIndex) public {\n    \n    //Creator cannot vote own poll\n    require(msg.sender != pollIdToPoll[_pollId].creator );\n    //pollId must exist\n    require(_pollId <= pollsCount);\n    //optionIndex must exist\n    require(_optionIndex < pollIdToOptions[_pollId].length);\n    //Voter cannot vote same poll twice\n    require(!hasVoted(_pollId));\n\n    pollIdToOptions[_pollId][_optionIndex].votes++;\n    addressToVotedPolls[msg.sender].push(_pollId);\n    emit PollVoted(_pollId, msg.sender, _optionIndex);\n  }\n\n}\n",
  "sourcePath": "/Users/adityazope/Projects/community-polls-dapp/contracts/CommunityPolls.sol",
  "compiler": {
    "name": "solc",
    "version": "0.8.13+commit.abaa5c0e.Emscripten.clang"
  },
  "schemaVersion": "3.4.6",
  "updatedAt": "2022-04-10T08:23:54.727Z",
  "networkType": "ethereum",
  "devdoc": {
    "kind": "dev",
    "methods": {},
    "version": 1
  },
  "userdoc": {
    "kind": "user",
    "methods": {},
    "version": 1
  }
}