{
  "contractName": "CommunityPolls",
  "abi": [
    {
      "anonymous": false,
      "inputs": [
        {
          "indexed": false,
          "internalType": "uint256",
          "name": "id",
          "type": "uint256"
        },
        {
          "indexed": false,
          "internalType": "address",
          "name": "creator",
          "type": "address"
        },
        {
          "indexed": false,
          "internalType": "string",
          "name": "question",
          "type": "string"
        },
        {
          "components": [
            {
              "internalType": "string",
              "name": "option",
              "type": "string"
            },
            {
              "internalType": "uint256",
              "name": "votes",
              "type": "uint256"
            }
          ],
          "indexed": false,
          "internalType": "struct CommunityPolls.Option[]",
          "name": "options",
          "type": "tuple[]"
        }
      ],
      "name": "PollCreated",
      "type": "event"
    },
    {
      "anonymous": false,
      "inputs": [
        {
          "indexed": false,
          "internalType": "uint256",
          "name": "id",
          "type": "uint256"
        },
        {
          "indexed": false,
          "internalType": "address",
          "name": "voter",
          "type": "address"
        },
        {
          "indexed": false,
          "internalType": "uint256",
          "name": "optionIndex",
          "type": "uint256"
        }
      ],
      "name": "PollVoted",
      "type": "event"
    },
    {
      "inputs": [
        {
          "internalType": "address",
          "name": "",
          "type": "address"
        },
        {
          "internalType": "uint256",
          "name": "",
          "type": "uint256"
        }
      ],
      "name": "addressToVotedPolls",
      "outputs": [
        {
          "internalType": "uint256",
          "name": "",
          "type": "uint256"
        }
      ],
      "stateMutability": "view",
      "type": "function",
      "constant": true
    },
    {
      "inputs": [
        {
          "internalType": "uint256",
          "name": "",
          "type": "uint256"
        },
        {
          "internalType": "uint256",
          "name": "",
          "type": "uint256"
        }
      ],
      "name": "pollIdToOptions",
      "outputs": [
        {
          "internalType": "string",
          "name": "option",
          "type": "string"
        },
        {
          "internalType": "uint256",
          "name": "votes",
          "type": "uint256"
        }
      ],
      "stateMutability": "view",
      "type": "function",
      "constant": true
    },
    {
      "inputs": [
        {
          "internalType": "uint256",
          "name": "",
          "type": "uint256"
        }
      ],
      "name": "pollIdToPoll",
      "outputs": [
        {
          "internalType": "uint256",
          "name": "id",
          "type": "uint256"
        },
        {
          "internalType": "address",
          "name": "creator",
          "type": "address"
        },
        {
          "internalType": "string",
          "name": "question",
          "type": "string"
        },
        {
          "internalType": "uint256",
          "name": "startTime",
          "type": "uint256"
        },
        {
          "internalType": "uint256",
          "name": "endTime",
          "type": "uint256"
        }
      ],
      "stateMutability": "view",
      "type": "function",
      "constant": true
    },
    {
      "inputs": [],
      "name": "pollsCount",
      "outputs": [
        {
          "internalType": "uint256",
          "name": "",
          "type": "uint256"
        }
      ],
      "stateMutability": "view",
      "type": "function",
      "constant": true
    },
    {
      "inputs": [
        {
          "internalType": "string",
          "name": "_question",
          "type": "string"
        },
        {
          "internalType": "uint256",
          "name": "_startTime",
          "type": "uint256"
        },
        {
          "internalType": "uint256",
          "name": "_endTime",
          "type": "uint256"
        },
        {
          "components": [
            {
              "internalType": "string",
              "name": "option",
              "type": "string"
            },
            {
              "internalType": "uint256",
              "name": "votes",
              "type": "uint256"
            }
          ],
          "internalType": "struct CommunityPolls.Option[]",
          "name": "_options",
          "type": "tuple[]"
        }
      ],
      "name": "createPoll",
      "outputs": [],
      "stateMutability": "nonpayable",
      "type": "function"
    },
    {
      "inputs": [
        {
          "internalType": "uint256",
          "name": "_pollId",
          "type": "uint256"
        },
        {
          "internalType": "uint256",
          "name": "_optionIndex",
          "type": "uint256"
        }
      ],
      "name": "vote",
      "outputs": [],
      "stateMutability": "nonpayable",
      "type": "function"
    }
  ],
  "bytecode": "0x60806040526000805534801561001457600080fd5b50611171806100246000396000f3fe608060405234801561001057600080fd5b50600436106100625760003560e01c8063179d760d146100675780632425795a146100855780639c4ebd82146100b9578063b384abef146100ea578063c5a37f6914610106578063f19ec2ba14610122575b600080fd5b61006f610152565b60405161007c919061088b565b60405180910390f35b61009f600480360381019061009a91906108e6565b610158565b6040516100b09594939291906109ed565b60405180910390f35b6100d360048036038101906100ce9190610a47565b610236565b6040516100e1929190610a87565b60405180910390f35b61010460048036038101906100ff9190610a47565b6102ff565b005b610120600480360381019061011b9190610d48565b6104e7565b005b61013c60048036038101906101379190610e13565b6106c2565b604051610149919061088b565b60405180910390f35b60005481565b60016020528060005260406000206000915090508060000154908060010160009054906101000a900473ffffffffffffffffffffffffffffffffffffffff16908060020180546101a790610e82565b80601f01602080910402602001604051908101604052809291908181526020018280546101d390610e82565b80156102205780601f106101f557610100808354040283529160200191610220565b820191906000526020600020905b81548152906001019060200180831161020357829003601f168201915b5050505050908060030154908060040154905085565b6002602052816000526040600020818154811061025257600080fd5b90600052602060002090600202016000915091505080600001805461027690610e82565b80601f01602080910402602001604051908101604052809291908181526020018280546102a290610e82565b80156102ef5780601f106102c4576101008083540402835291602001916102ef565b820191906000526020600020905b8154815290600101906020018083116102d257829003601f168201915b5050505050908060010154905082565b4260016000848152602001908152602001600020600301541115801561033b575042600160008481526020019081526020016000206004015410155b61034457600080fd5b6001600083815260200190815260200160002060010160009054906101000a900473ffffffffffffffffffffffffffffffffffffffff1673ffffffffffffffffffffffffffffffffffffffff163373ffffffffffffffffffffffffffffffffffffffff16036103b257600080fd5b6000548211156103c157600080fd5b600260008381526020019081526020016000208054905081106103e357600080fd5b6103ec826106f3565b156103f657600080fd5b60026000838152602001908152602001600020818154811061041b5761041a610eb3565b5b9060005260206000209060020201600101600081548092919061043d90610f11565b9190505550600360003373ffffffffffffffffffffffffffffffffffffffff1673ffffffffffffffffffffffffffffffffffffffff1681526020019081526020016000208290806001815401808255809150506001900390600052602060002001600090919091909150557f41b9ea38e0dca627a5a8588a7edd2198d6d8e43ec5a6161fa126559a0eb570148233836040516104db93929190610f59565b60405180910390a15050565b6000808154809291906104f990610f11565b919050555060006040518060a0016040528060005481526020013373ffffffffffffffffffffffffffffffffffffffff1681526020018681526020018581526020018481525090508060016000805481526020019081526020016000206000820151816000015560208201518160010160006101000a81548173ffffffffffffffffffffffffffffffffffffffff021916908373ffffffffffffffffffffffffffffffffffffffff16021790555060408201518160020190805190602001906105c39291906107cf565b50606082015181600301556080820151816004015590505060005b825181101561067b57600260008054815260200190815260200160002083828151811061060e5761060d610eb3565b5b60200260200101519080600181540180825580915050600190039060005260206000209060020201600090919091909150600082015181600001908051906020019061065b9291906107cf565b50602082015181600101555050808061067390610f11565b9150506105de565b507ff872528f485af3ae72d235de5679ef742b20283f8167e84806995e7e963c360d6000543387856040516106b394939291906110e8565b60405180910390a15050505050565b600360205281600052604060002081815481106106de57600080fd5b90600052602060002001600091509150505481565b600080600090505b600360003373ffffffffffffffffffffffffffffffffffffffff1673ffffffffffffffffffffffffffffffffffffffff168152602001908152602001600020805490508110156107c45782600360003373ffffffffffffffffffffffffffffffffffffffff1673ffffffffffffffffffffffffffffffffffffffff168152602001908152602001600020828154811061079757610796610eb3565b5b9060005260206000200154036107b15760019150506107ca565b80806107bc90610f11565b9150506106fb565b50600090505b919050565b8280546107db90610e82565b90600052602060002090601f0160209004810192826107fd5760008555610844565b82601f1061081657805160ff1916838001178555610844565b82800160010185558215610844579182015b82811115610843578251825591602001919060010190610828565b5b5090506108519190610855565b5090565b5b8082111561086e576000816000905550600101610856565b5090565b6000819050919050565b61088581610872565b82525050565b60006020820190506108a0600083018461087c565b92915050565b6000604051905090565b600080fd5b600080fd5b6108c381610872565b81146108ce57600080fd5b50565b6000813590506108e0816108ba565b92915050565b6000602082840312156108fc576108fb6108b0565b5b600061090a848285016108d1565b91505092915050565b600073ffffffffffffffffffffffffffffffffffffffff82169050919050565b600061093e82610913565b9050919050565b61094e81610933565b82525050565b600081519050919050565b600082825260208201905092915050565b60005b8381101561098e578082015181840152602081019050610973565b8381111561099d576000848401525b50505050565b6000601f19601f8301169050919050565b60006109bf82610954565b6109c9818561095f565b93506109d9818560208601610970565b6109e2816109a3565b840191505092915050565b600060a082019050610a02600083018861087c565b610a0f6020830187610945565b8181036040830152610a2181866109b4565b9050610a30606083018561087c565b610a3d608083018461087c565b9695505050505050565b60008060408385031215610a5e57610a5d6108b0565b5b6000610a6c858286016108d1565b9250506020610a7d858286016108d1565b9150509250929050565b60006040820190508181036000830152610aa181856109b4565b9050610ab0602083018461087c565b9392505050565b600080fd5b600080fd5b7f4e487b7100000000000000000000000000000000000000000000000000000000600052604160045260246000fd5b610af9826109a3565b810181811067ffffffffffffffff82111715610b1857610b17610ac1565b5b80604052505050565b6000610b2b6108a6565b9050610b378282610af0565b919050565b600067ffffffffffffffff821115610b5757610b56610ac1565b5b610b60826109a3565b9050602081019050919050565b82818337600083830152505050565b6000610b8f610b8a84610b3c565b610b21565b905082815260208101848484011115610bab57610baa610abc565b5b610bb6848285610b6d565b509392505050565b600082601f830112610bd357610bd2610ab7565b5b8135610be3848260208601610b7c565b91505092915050565b600067ffffffffffffffff821115610c0757610c06610ac1565b5b602082029050602081019050919050565b600080fd5b600080fd5b600080fd5b600060408284031215610c3d57610c3c610c1d565b5b610c476040610b21565b9050600082013567ffffffffffffffff811115610c6757610c66610c22565b5b610c7384828501610bbe565b6000830152506020610c87848285016108d1565b60208301525092915050565b6000610ca6610ca184610bec565b610b21565b90508083825260208201905060208402830185811115610cc957610cc8610c18565b5b835b81811015610d1057803567ffffffffffffffff811115610cee57610ced610ab7565b5b808601610cfb8982610c27565b85526020850194505050602081019050610ccb565b5050509392505050565b600082601f830112610d2f57610d2e610ab7565b5b8135610d3f848260208601610c93565b91505092915050565b60008060008060808587031215610d6257610d616108b0565b5b600085013567ffffffffffffffff811115610d8057610d7f6108b5565b5b610d8c87828801610bbe565b9450506020610d9d878288016108d1565b9350506040610dae878288016108d1565b925050606085013567ffffffffffffffff811115610dcf57610dce6108b5565b5b610ddb87828801610d1a565b91505092959194509250565b610df081610933565b8114610dfb57600080fd5b50565b600081359050610e0d81610de7565b92915050565b60008060408385031215610e2a57610e296108b0565b5b6000610e3885828601610dfe565b9250506020610e49858286016108d1565b9150509250929050565b7f4e487b7100000000000000000000000000000000000000000000000000000000600052602260045260246000fd5b60006002820490506001821680610e9a57607f821691505b602082108103610ead57610eac610e53565b5b50919050565b7f4e487b7100000000000000000000000000000000000000000000000000000000600052603260045260246000fd5b7f4e487b7100000000000000000000000000000000000000000000000000000000600052601160045260246000fd5b6000610f1c82610872565b91507fffffffffffffffffffffffffffffffffffffffffffffffffffffffffffffffff8203610f4e57610f4d610ee2565b5b600182019050919050565b6000606082019050610f6e600083018661087c565b610f7b6020830185610945565b610f88604083018461087c565b949350505050565b600081519050919050565b600082825260208201905092915050565b6000819050602082019050919050565b600082825260208201905092915050565b6000610fd882610954565b610fe28185610fbc565b9350610ff2818560208601610970565b610ffb816109a3565b840191505092915050565b61100f81610872565b82525050565b600060408301600083015184820360008601526110328282610fcd565b91505060208301516110476020860182611006565b508091505092915050565b600061105e8383611015565b905092915050565b6000602082019050919050565b600061107e82610f90565b6110888185610f9b565b93508360208202850161109a85610fac565b8060005b858110156110d657848403895281516110b78582611052565b94506110c283611066565b925060208a0199505060018101905061109e565b50829750879550505050505092915050565b60006080820190506110fd600083018761087c565b61110a6020830186610945565b818103604083015261111c81856109b4565b905081810360608301526111308184611073565b90509594505050505056fea264697066735822122055dbdd2457fd7c4d8b2f09bc273c34b1a7d184615825518a248c14fea7f56bfc64736f6c634300080d0033",
  "immutableReferences": {},
  "source": "// SPDX-License-Identifier: MIT\npragma solidity ^0.8.13;\n\ncontract CommunityPolls {\n  uint public pollsCount = 0;\n  struct Option {\n    string option;\n    uint votes;\n  }\n  struct Poll {\n    uint id;\n    address creator;\n    string question;\n    uint startTime;\n    uint endTime;\n  }\n\n  mapping(uint => Poll) public pollIdToPoll;\n  mapping(uint => Option[]) public pollIdToOptions;\n  mapping(address => uint[]) public addressToVotedPolls;\n\n  event PollCreated(uint id, address creator, string question, Option[] options);\n  event PollVoted(uint id, address voter, uint optionIndex);\n\n  function createPoll(string memory _question, uint _startTime, uint _endTime, Option[] memory _options) public {\n    pollsCount++;\n    Poll memory _poll = Poll({\n      id: pollsCount,\n      creator: msg.sender,\n      question: _question,\n      startTime: _startTime,\n      endTime: _endTime\n    });\n    pollIdToPoll[pollsCount] = _poll;\n    for(uint i = 0;i < _options.length;i++) {\n      pollIdToOptions[pollsCount].push(_options[i]);\n    }\n\n    emit PollCreated(pollsCount, msg.sender, _question, _options);\n  }\n\n  function hasVoted(uint _pollId) private view returns (bool) {\n    for (uint i = 0; i < addressToVotedPolls[msg.sender].length; i++) {\n      if(addressToVotedPolls[msg.sender][i] == _pollId) {\n        return true;\n      }\n    }\n    return false;\n  }\n\n  function vote(uint _pollId, uint _optionIndex) public {\n    \n    //Poll must not be expired\n    require(pollIdToPoll[_pollId].startTime <= block.timestamp && pollIdToPoll[_pollId].endTime >= block.timestamp);\n    //Creator cannot vote own poll\n    require(msg.sender != pollIdToPoll[_pollId].creator );\n    //pollId must exist\n    require(_pollId <= pollsCount);\n    //optionIndex must exist\n    require(_optionIndex < pollIdToOptions[_pollId].length);\n    //Voter cannot vote same poll twice\n    require(!hasVoted(_pollId));\n\n\n    pollIdToOptions[_pollId][_optionIndex].votes++;\n    addressToVotedPolls[msg.sender].push(_pollId);\n    emit PollVoted(_pollId, msg.sender, _optionIndex);\n  }\n\n}\n",
  "sourcePath": "/Users/adityazope/Projects/community-polls-dapp/contracts/CommunityPolls.sol",
  "compiler": {
    "name": "solc",
    "version": "0.8.13+commit.abaa5c0e.Emscripten.clang"
  },
  "schemaVersion": "3.4.6",
  "updatedAt": "2022-04-15T03:30:43.051Z",
  "networkType": "ethereum",
  "devdoc": {
    "kind": "dev",
    "methods": {},
    "version": 1
  },
  "userdoc": {
    "kind": "user",
    "methods": {},
    "version": 1
  }
}